{
  "contractName": "EventOrganization",
  "abi": [
    {
      "inputs": [
        {
          "internalType": "uint256",
          "name": "",
          "type": "uint256"
        }
      ],
      "name": "events",
      "outputs": [
        {
          "internalType": "uint256",
          "name": "id",
          "type": "uint256"
        },
        {
          "internalType": "address",
          "name": "admin",
          "type": "address"
        },
        {
          "internalType": "string",
          "name": "name",
          "type": "string"
        },
        {
          "internalType": "uint256",
          "name": "date",
          "type": "uint256"
        },
        {
          "internalType": "uint256",
          "name": "price",
          "type": "uint256"
        },
        {
          "internalType": "uint256",
          "name": "ticketCount",
          "type": "uint256"
        },
        {
          "internalType": "uint256",
          "name": "ticketRemaining",
          "type": "uint256"
        }
      ],
      "stateMutability": "view",
      "type": "function"
    },
    {
      "inputs": [],
      "name": "nextId",
      "outputs": [
        {
          "internalType": "uint256",
          "name": "",
          "type": "uint256"
        }
      ],
      "stateMutability": "view",
      "type": "function"
    },
    {
      "inputs": [
        {
          "internalType": "address",
          "name": "",
          "type": "address"
        },
        {
          "internalType": "uint256",
          "name": "",
          "type": "uint256"
        }
      ],
      "name": "tickets",
      "outputs": [
        {
          "internalType": "uint256",
          "name": "",
          "type": "uint256"
        }
      ],
      "stateMutability": "view",
      "type": "function"
    },
    {
      "inputs": [
        {
          "internalType": "string",
          "name": "_name",
          "type": "string"
        },
        {
          "internalType": "uint256",
          "name": "_date",
          "type": "uint256"
        },
        {
          "internalType": "uint256",
          "name": "_price",
          "type": "uint256"
        },
        {
          "internalType": "uint256",
          "name": "_ticketCount",
          "type": "uint256"
        }
      ],
      "name": "createEvent",
      "outputs": [],
      "stateMutability": "nonpayable",
      "type": "function"
    },
    {
      "inputs": [
        {
          "internalType": "uint256",
          "name": "_id",
          "type": "uint256"
        },
        {
          "internalType": "uint256",
          "name": "_amount",
          "type": "uint256"
        }
      ],
      "name": "buyTickets",
      "outputs": [],
      "stateMutability": "payable",
      "type": "function"
    },
    {
      "inputs": [
        {
          "internalType": "uint256",
          "name": "_eventId",
          "type": "uint256"
        },
        {
          "internalType": "uint256",
          "name": "_amount",
          "type": "uint256"
        },
        {
          "internalType": "address",
          "name": "_to",
          "type": "address"
        }
      ],
      "name": "transferTickets",
      "outputs": [],
      "stateMutability": "nonpayable",
      "type": "function"
    }
  ],
  "bytecode": "0x608060405234801561001057600080fd5b5061119f806100206000396000f3fe608060405260043610610072576000357c0100000000000000000000000000000000000000000000000000000000900480630374ab0b146100775780630b791430146100a05780633d23eed9146100e357806361b8ce8c1461010c5780638627df4614610137578063dae7a13c14610153575b600080fd5b34801561008357600080fd5b5061009e600480360381019061009991906109da565b610190565b005b3480156100ac57600080fd5b506100c760048036038101906100c29190610a5a565b610370565b6040516100da9796959493929190610e6c565b60405180910390f35b3480156100ef57600080fd5b5061010a60048036038101906101059190610abf565b61045a565b005b34801561011857600080fd5b50610121610673565b60405161012e9190610e51565b60405180910390f35b610151600480360381019061014c9190610a83565b610679565b005b34801561015f57600080fd5b5061017a6004803603810190610175919061099e565b610862565b6040516101879190610e51565b60405180910390f35b4283116101d2576040517f08c379a00000000000000000000000000000000000000000000000000000000081526004016101c990610e11565b60405180910390fd5b60008111610215576040517f08c379a000000000000000000000000000000000000000000000000000000000815260040161020c90610d91565b60405180910390fd5b6040518060e0016040528060025481526020013373ffffffffffffffffffffffffffffffffffffffff16815260200186868080601f016020809104026020016040519081016040528093929190818152602001838380828437600081840152601f19601f8201169050808301925050505050505081526020018481526020018381526020018281526020018281525060008060025481526020019081526020016000206000820151816000015560208201518160010160006101000a81548173ffffffffffffffffffffffffffffffffffffffff021916908373ffffffffffffffffffffffffffffffffffffffff1602179055506040820151816002019080519060200190610325929190610887565b50606082015181600301556080820151816004015560a0820151816005015560c082015181600601559050506002600081548092919061036490611083565b91905055505050505050565b60006020528060005260406000206000915090508060000154908060010160009054906101000a900473ffffffffffffffffffffffffffffffffffffffff16908060020180546103bf90611051565b80601f01602080910402602001604051908101604052809291908181526020018280546103eb90611051565b80156104385780601f1061040d57610100808354040283529160200191610438565b820191906000526020600020905b81548152906001019060200180831161041b57829003601f168201915b5050505050908060030154908060040154908060050154908060060154905087565b8260008060008381526020019081526020016000206003015414156104b4576040517f08c379a00000000000000000000000000000000000000000000000000000000081526004016104ab90610dd1565b60405180910390fd5b8360008082815260200190815260200160002060030154421061050c576040517f08c379a000000000000000000000000000000000000000000000000000000000815260040161050390610db1565b60405180910390fd5b83600160003373ffffffffffffffffffffffffffffffffffffffff1673ffffffffffffffffffffffffffffffffffffffff1681526020019081526020016000206000878152602001908152602001600020541161059e576040517f08c379a000000000000000000000000000000000000000000000000000000000815260040161059590610df1565b60405180910390fd5b83600160003373ffffffffffffffffffffffffffffffffffffffff1673ffffffffffffffffffffffffffffffffffffffff168152602001908152602001600020600087815260200190815260200160002060008282546105fe9190610fae565b9250508190555083600160008573ffffffffffffffffffffffffffffffffffffffff1673ffffffffffffffffffffffffffffffffffffffff168152602001908152602001600020600087815260200190815260200160002060008282546106659190610efe565b925050819055505050505050565b60025481565b8160008060008381526020019081526020016000206003015414156106d3576040517f08c379a00000000000000000000000000000000000000000000000000000000081526004016106ca90610dd1565b60405180910390fd5b8260008082815260200190815260200160002060030154421061072b576040517f08c379a000000000000000000000000000000000000000000000000000000000815260040161072290610db1565b60405180910390fd5b600080600086815260200190815260200160002090508381600401546107519190610f54565b3414610792576040517f08c379a000000000000000000000000000000000000000000000000000000000815260040161078990610e31565b60405180910390fd5b60008160060154116107d9576040517f08c379a00000000000000000000000000000000000000000000000000000000081526004016107d090610d71565b60405180910390fd5b838160060160008282546107ed9190610fae565b9250508190555083600160003373ffffffffffffffffffffffffffffffffffffffff1673ffffffffffffffffffffffffffffffffffffffff168152602001908152602001600020600087815260200190815260200160002060008282546108549190610efe565b925050819055505050505050565b6001602052816000526040600020602052806000526040600020600091509150505481565b82805461089390611051565b90600052602060002090601f0160209004810192826108b557600085556108fc565b82601f106108ce57805160ff19168380011785556108fc565b828001600101855582156108fc579182015b828111156108fb5782518255916020019190600101906108e0565b5b509050610909919061090d565b5090565b5b8082111561092657600081600090555060010161090e565b5090565b6000813590506109398161113b565b92915050565b60008083601f84011261095157600080fd5b8235905067ffffffffffffffff81111561096a57600080fd5b60208301915083600182028301111561098257600080fd5b9250929050565b60008135905061099881611152565b92915050565b600080604083850312156109b157600080fd5b60006109bf8582860161092a565b92505060206109d085828601610989565b9150509250929050565b6000806000806000608086880312156109f257600080fd5b600086013567ffffffffffffffff811115610a0c57600080fd5b610a188882890161093f565b95509550506020610a2b88828901610989565b9350506040610a3c88828901610989565b9250506060610a4d88828901610989565b9150509295509295909350565b600060208284031215610a6c57600080fd5b6000610a7a84828501610989565b91505092915050565b60008060408385031215610a9657600080fd5b6000610aa485828601610989565b9250506020610ab585828601610989565b9150509250929050565b600080600060608486031215610ad457600080fd5b6000610ae286828701610989565b9350506020610af386828701610989565b9250506040610b048682870161092a565b9150509250925092565b610b1781610fe2565b82525050565b6000610b2882610ee2565b610b328185610eed565b9350610b4281856020860161101e565b610b4b8161112a565b840191505092915050565b6000610b63602e83610eed565b91507f4d7573742068617665207469636b65747320617661696c61626c65207468617460008301527f206d656574732064656d616e642e0000000000000000000000000000000000006020830152604082019050919050565b6000610bc9601c83610eed565b91507f4d7573742068617665207469636b65747320617661696c61626c652e000000006000830152602082019050919050565b6000610c09601483610eed565b91507f4576656e74206d757374206265206163746976650000000000000000000000006000830152602082019050919050565b6000610c49601583610eed565b91507f4576656e7420646f6573206e6f742065786973742e00000000000000000000006000830152602082019050919050565b6000610c89601483610eed565b91507f496e73756666696369656e74207469636b6574730000000000000000000000006000830152602082019050919050565b6000610cc9602683610eed565b91507f4576656e74206d75737420626520637265617465642061742061206c6174657260008301527f20646174652e00000000000000000000000000000000000000000000000000006020830152604082019050919050565b6000610d2f601383610eed565b91507f496e73756666696369656e742066756e64732e000000000000000000000000006000830152602082019050919050565b610d6b81611014565b82525050565b60006020820190508181036000830152610d8a81610b56565b9050919050565b60006020820190508181036000830152610daa81610bbc565b9050919050565b60006020820190508181036000830152610dca81610bfc565b9050919050565b60006020820190508181036000830152610dea81610c3c565b9050919050565b60006020820190508181036000830152610e0a81610c7c565b9050919050565b60006020820190508181036000830152610e2a81610cbc565b9050919050565b60006020820190508181036000830152610e4a81610d22565b9050919050565b6000602082019050610e666000830184610d62565b92915050565b600060e082019050610e81600083018a610d62565b610e8e6020830189610b0e565b8181036040830152610ea08188610b1d565b9050610eaf6060830187610d62565b610ebc6080830186610d62565b610ec960a0830185610d62565b610ed660c0830184610d62565b98975050505050505050565b600081519050919050565b600082825260208201905092915050565b6000610f0982611014565b9150610f1483611014565b9250827fffffffffffffffffffffffffffffffffffffffffffffffffffffffffffffffff03821115610f4957610f486110cc565b5b828201905092915050565b6000610f5f82611014565b9150610f6a83611014565b9250817fffffffffffffffffffffffffffffffffffffffffffffffffffffffffffffffff0483118215151615610fa357610fa26110cc565b5b828202905092915050565b6000610fb982611014565b9150610fc483611014565b925082821015610fd757610fd66110cc565b5b828203905092915050565b6000610fed82610ff4565b9050919050565b600073ffffffffffffffffffffffffffffffffffffffff82169050919050565b6000819050919050565b60005b8381101561103c578082015181840152602081019050611021565b8381111561104b576000848401525b50505050565b6000600282049050600182168061106957607f821691505b6020821081141561107d5761107c6110fb565b5b50919050565b600061108e82611014565b91507fffffffffffffffffffffffffffffffffffffffffffffffffffffffffffffffff8214156110c1576110c06110cc565b5b600182019050919050565b7f4e487b7100000000000000000000000000000000000000000000000000000000600052601160045260246000fd5b7f4e487b7100000000000000000000000000000000000000000000000000000000600052602260045260246000fd5b6000601f19601f8301169050919050565b61114481610fe2565b811461114f57600080fd5b50565b61115b81611014565b811461116657600080fd5b5056fea2646970667358221220ec536fc8f8c00ee2ed9982ac6223bd6644a7d7967c043c0a12d8deb138fcc3fb64736f6c63430008000033",
  "immutableReferences": {},
  "source": "// SPDX-License-Identifier: MIT\npragma solidity ^0.8.0;\n\ncontract EventOrganization {\n    struct Event {\n        uint256 id;\n        address admin;\n        string name;\n        uint256 date;\n        uint256 price;\n        uint256 ticketCount;\n        uint256 ticketRemaining;\n    }\n\n    mapping(uint256 => Event) public events;\n    mapping(address => mapping(uint256 => uint256)) public tickets;\n    uint256 public nextId;\n\n    function createEvent(\n        string calldata _name,\n        uint256 _date,\n        uint256 _price,\n        uint256 _ticketCount\n    ) external {\n        require(\n            _date > block.timestamp,\n            \"Event must be created at a later date.\"\n        );\n        require(_ticketCount > 0, \"Must have tickets available.\");\n        events[nextId] = Event(\n            nextId,\n            msg.sender,\n            _name,\n            _date,\n            _price,\n            _ticketCount,\n            _ticketCount\n        );\n        nextId++;\n    }\n\n    modifier eventExist(uint256 _id) {\n        require(events[_id].date != 0, \"Event does not exist.\");\n        _;\n    }\n\n    modifier eventActive(uint256 _id) {\n        require(block.timestamp < events[_id].date, \"Event must be active\");\n        _;\n    }\n\n    function buyTickets(uint256 _id, uint256 _amount)\n        external\n        payable\n        eventExist(_id)\n        eventActive(_id)\n    {\n        Event storage _event = events[_id];\n        require(msg.value == (_event.price * _amount), \"Insufficient funds.\");\n        require(\n            _event.ticketRemaining > 0,\n            \"Must have tickets available that meets demand.\"\n        );\n        _event.ticketRemaining -= _amount;\n        tickets[msg.sender][_id] += _amount;\n    }\n\n    function transferTickets(\n        uint256 _eventId,\n        uint256 _amount,\n        address _to\n    ) external eventExist(_eventId) eventActive(_eventId) {\n        require(\n            tickets[msg.sender][_eventId] > _amount,\n            \"Insufficient tickets\"\n        );\n        tickets[msg.sender][_eventId] -= _amount;\n        tickets[_to][_eventId] += _amount;\n    }\n}\n",
  "sourcePath": "/Users/jasonha/Desktop/demos/smart_contracts/event_organization/smart_contract/contracts/Event.sol",
  "compiler": {
    "name": "solc",
    "version": "0.8.0+commit.c7dfd78e.Emscripten.clang"
  },
  "schemaVersion": "3.4.5",
  "updatedAt": "2022-03-02T18:55:49.743Z",
  "devdoc": {
    "kind": "dev",
    "methods": {},
    "version": 1
  },
  "userdoc": {
    "kind": "user",
    "methods": {},
    "version": 1
  }
}